{
  "_format": "hh-sol-artifact-1",
  "contractName": "Calend3",
  "sourceName": "contracts/Calend3.sol",
  "abi": [
    {
      "inputs": [],
      "stateMutability": "nonpayable",
      "type": "constructor"
    },
    {
      "inputs": [
        {
          "internalType": "string",
          "name": "title",
          "type": "string"
        },
        {
          "internalType": "uint256",
          "name": "startTime",
          "type": "uint256"
        },
        {
          "internalType": "uint256",
          "name": "endTime",
          "type": "uint256"
        }
      ],
      "name": "createAppointment",
      "outputs": [],
      "stateMutability": "payable",
      "type": "function"
    },
    {
      "inputs": [],
      "name": "getAppointments",
      "outputs": [
        {
          "components": [
            {
              "internalType": "string",
              "name": "title",
              "type": "string"
            },
            {
              "internalType": "address",
              "name": "attendee",
              "type": "address"
            },
            {
              "internalType": "uint256",
              "name": "startTime",
              "type": "uint256"
            },
            {
              "internalType": "uint256",
              "name": "endTime",
              "type": "uint256"
            },
            {
              "internalType": "uint256",
              "name": "amountPaid",
              "type": "uint256"
            }
          ],
          "internalType": "struct Calend3.Appointment[]",
          "name": "",
          "type": "tuple[]"
        }
      ],
      "stateMutability": "view",
      "type": "function"
    },
    {
      "inputs": [],
      "name": "getRate",
      "outputs": [
        {
          "internalType": "uint256",
          "name": "",
          "type": "uint256"
        }
      ],
      "stateMutability": "view",
      "type": "function"
    },
    {
      "inputs": [
        {
          "internalType": "uint256",
          "name": "_rate",
          "type": "uint256"
        }
      ],
      "name": "setRate",
      "outputs": [],
      "stateMutability": "nonpayable",
      "type": "function"
    }
  ],
  "bytecode": "0x608060405234801561001057600080fd5b5033600160006101000a81548173ffffffffffffffffffffffffffffffffffffffff021916908373ffffffffffffffffffffffffffffffffffffffff160217905550610dd5806100616000396000f3fe60806040526004361061003f5760003560e01c806334fcf4371461004457806359c35bdf1461006d578063679aefce1461008957806396b80d08146100b4575b600080fd5b34801561005057600080fd5b5061006b6004803603810190610066919061070a565b6100df565b005b610087600480360381019061008291906106a3565b610179565b005b34801561009557600080fd5b5061009e6103d0565b6040516100ab91906109bb565b60405180910390f35b3480156100c057600080fd5b506100c96103d9565b6040516100d69190610939565b60405180910390f35b600160009054906101000a900473ffffffffffffffffffffffffffffffffffffffff1673ffffffffffffffffffffffffffffffffffffffff163373ffffffffffffffffffffffffffffffffffffffff161461016f576040517f08c379a00000000000000000000000000000000000000000000000000000000081526004016101669061099b565b60405180910390fd5b8060008190555050565b61018161053e565b8381600001819052508281604001818152505081816060018181525050600054603c84846101af9190610b28565b6101b99190610a9d565b6101c39190610ace565b81608001818152505033816020019073ffffffffffffffffffffffffffffffffffffffff16908173ffffffffffffffffffffffffffffffffffffffff1681525050806080015134101561024b576040517f08c379a00000000000000000000000000000000000000000000000000000000081526004016102429061095b565b60405180910390fd5b6000600160009054906101000a900473ffffffffffffffffffffffffffffffffffffffff1673ffffffffffffffffffffffffffffffffffffffff163460405161029390610924565b60006040518083038185875af1925050503d80600081146102d0576040519150601f19603f3d011682016040523d82523d6000602084013e6102d5565b606091505b5050905080610319576040517f08c379a00000000000000000000000000000000000000000000000000000000081526004016103109061097b565b60405180910390fd5b60028290806001815401808255809150506001900390600052602060002090600502016000909190919091506000820151816000019080519060200190610361929190610583565b5060208201518160010160006101000a81548173ffffffffffffffffffffffffffffffffffffffff021916908373ffffffffffffffffffffffffffffffffffffffff16021790555060408201518160020155606082015181600301556080820151816004015550505050505050565b60008054905090565b60606002805480602002602001604051908101604052809291908181526020016000905b8282101561053557838290600052602060002090600502016040518060a001604052908160008201805461043090610bda565b80601f016020809104026020016040519081016040528092919081815260200182805461045c90610bda565b80156104a95780601f1061047e576101008083540402835291602001916104a9565b820191906000526020600020905b81548152906001019060200180831161048c57829003601f168201915b505050505081526020016001820160009054906101000a900473ffffffffffffffffffffffffffffffffffffffff1673ffffffffffffffffffffffffffffffffffffffff1673ffffffffffffffffffffffffffffffffffffffff1681526020016002820154815260200160038201548152602001600482015481525050815260200190600101906103fd565b50505050905090565b6040518060a0016040528060608152602001600073ffffffffffffffffffffffffffffffffffffffff1681526020016000815260200160008152602001600081525090565b82805461058f90610bda565b90600052602060002090601f0160209004810192826105b157600085556105f8565b82601f106105ca57805160ff19168380011785556105f8565b828001600101855582156105f8579182015b828111156105f75782518255916020019190600101906105dc565b5b5090506106059190610609565b5090565b5b8082111561062257600081600090555060010161060a565b5090565b6000610639610634846109fb565b6109d6565b90508281526020810184848401111561065157600080fd5b61065c848285610b98565b509392505050565b600082601f83011261067557600080fd5b8135610685848260208601610626565b91505092915050565b60008135905061069d81610d88565b92915050565b6000806000606084860312156106b857600080fd5b600084013567ffffffffffffffff8111156106d257600080fd5b6106de86828701610664565b93505060206106ef8682870161068e565b92505060406107008682870161068e565b9150509250925092565b60006020828403121561071c57600080fd5b600061072a8482850161068e565b91505092915050565b600061073f8383610890565b905092915050565b61075081610b5c565b82525050565b600061076182610a3c565b61076b8185610a5f565b93508360208202850161077d85610a2c565b8060005b858110156107b9578484038952815161079a8582610733565b94506107a583610a52565b925060208a01995050600181019050610781565b50829750879550505050505092915050565b60006107d682610a47565b6107e08185610a7b565b93506107f0818560208601610ba7565b6107f981610cf9565b840191505092915050565b6000610811601583610a8c565b915061081c82610d0a565b602082019050919050565b6000610834601483610a8c565b915061083f82610d33565b602082019050919050565b6000610857600083610a70565b915061086282610d5c565b600082019050919050565b600061087a601f83610a8c565b915061088582610d5f565b602082019050919050565b600060a08301600083015184820360008601526108ad82826107cb565b91505060208301516108c26020860182610747565b5060408301516108d56040860182610906565b5060608301516108e86060860182610906565b5060808301516108fb6080860182610906565b508091505092915050565b61090f81610b8e565b82525050565b61091e81610b8e565b82525050565b600061092f8261084a565b9150819050919050565b600060208201905081810360008301526109538184610756565b905092915050565b6000602082019050818103600083015261097481610804565b9050919050565b6000602082019050818103600083015261099481610827565b9050919050565b600060208201905081810360008301526109b48161086d565b9050919050565b60006020820190506109d06000830184610915565b92915050565b60006109e06109f1565b90506109ec8282610c0c565b919050565b6000604051905090565b600067ffffffffffffffff821115610a1657610a15610cca565b5b610a1f82610cf9565b9050602081019050919050565b6000819050602082019050919050565b600081519050919050565b600081519050919050565b6000602082019050919050565b600082825260208201905092915050565b600081905092915050565b600082825260208201905092915050565b600082825260208201905092915050565b6000610aa882610b8e565b9150610ab383610b8e565b925082610ac357610ac2610c6c565b5b828204905092915050565b6000610ad982610b8e565b9150610ae483610b8e565b9250817fffffffffffffffffffffffffffffffffffffffffffffffffffffffffffffffff0483118215151615610b1d57610b1c610c3d565b5b828202905092915050565b6000610b3382610b8e565b9150610b3e83610b8e565b925082821015610b5157610b50610c3d565b5b828203905092915050565b6000610b6782610b6e565b9050919050565b600073ffffffffffffffffffffffffffffffffffffffff82169050919050565b6000819050919050565b82818337600083830152505050565b60005b83811015610bc5578082015181840152602081019050610baa565b83811115610bd4576000848401525b50505050565b60006002820490506001821680610bf257607f821691505b60208210811415610c0657610c05610c9b565b5b50919050565b610c1582610cf9565b810181811067ffffffffffffffff82111715610c3457610c33610cca565b5b80604052505050565b7f4e487b7100000000000000000000000000000000000000000000000000000000600052601160045260246000fd5b7f4e487b7100000000000000000000000000000000000000000000000000000000600052601260045260246000fd5b7f4e487b7100000000000000000000000000000000000000000000000000000000600052602260045260246000fd5b7f4e487b7100000000000000000000000000000000000000000000000000000000600052604160045260246000fd5b6000601f19601f8301169050919050565b7f57652072657175697265206d6f72652065746865720000000000000000000000600082015250565b7f4661696c656420746f2073656e64204574686572000000000000000000000000600082015250565b50565b7f4f6e6c7920746865206f776e65722063616e2073657420746865207261746500600082015250565b610d9181610b8e565b8114610d9c57600080fd5b5056fea264697066735822122074c037fe45b72a7e14915a36c2ad5e116124580854cef5ca9b4b7844c90fcc6a64736f6c63430008040033",
  "linkReferences": {},
  "deployedLinkReferences": {}
}